{
  "address": "0x63A0aaCFBd8d90BC8144fAeab5FE95e2C83b480b",
  "abi": [
    {
      "inputs": [],
      "stateMutability": "nonpayable",
      "type": "constructor"
    },
    {
      "anonymous": false,
      "inputs": [
        {
          "indexed": true,
          "internalType": "address",
          "name": "owner",
          "type": "address"
        },
        {
          "indexed": true,
          "internalType": "address",
          "name": "approved",
          "type": "address"
        },
        {
          "indexed": true,
          "internalType": "uint256",
          "name": "tokenId",
          "type": "uint256"
        }
      ],
      "name": "Approval",
      "type": "event"
    },
    {
      "anonymous": false,
      "inputs": [
        {
          "indexed": true,
          "internalType": "address",
          "name": "owner",
          "type": "address"
        },
        {
          "indexed": true,
          "internalType": "address",
          "name": "operator",
          "type": "address"
        },
        {
          "indexed": false,
          "internalType": "bool",
          "name": "approved",
          "type": "bool"
        }
      ],
      "name": "ApprovalForAll",
      "type": "event"
    },
    {
      "anonymous": false,
      "inputs": [
        {
          "indexed": false,
          "internalType": "uint256",
          "name": "amount",
          "type": "uint256"
        }
      ],
      "name": "ItemsAdded",
      "type": "event"
    },
    {
      "anonymous": false,
      "inputs": [
        {
          "indexed": true,
          "internalType": "address",
          "name": "previousOwner",
          "type": "address"
        },
        {
          "indexed": true,
          "internalType": "address",
          "name": "newOwner",
          "type": "address"
        }
      ],
      "name": "OwnershipTransferred",
      "type": "event"
    },
    {
      "anonymous": false,
      "inputs": [
        {
          "indexed": true,
          "internalType": "address",
          "name": "from",
          "type": "address"
        },
        {
          "indexed": true,
          "internalType": "address",
          "name": "to",
          "type": "address"
        },
        {
          "indexed": true,
          "internalType": "uint256",
          "name": "tokenId",
          "type": "uint256"
        }
      ],
      "name": "Transfer",
      "type": "event"
    },
    {
      "inputs": [
        {
          "internalType": "address",
          "name": "to",
          "type": "address"
        },
        {
          "internalType": "uint256",
          "name": "tokenId",
          "type": "uint256"
        }
      ],
      "name": "approve",
      "outputs": [],
      "stateMutability": "nonpayable",
      "type": "function"
    },
    {
      "inputs": [
        {
          "internalType": "address",
          "name": "owner",
          "type": "address"
        }
      ],
      "name": "balanceOf",
      "outputs": [
        {
          "internalType": "uint256",
          "name": "",
          "type": "uint256"
        }
      ],
      "stateMutability": "view",
      "type": "function"
    },
    {
      "inputs": [],
      "name": "baseUrl",
      "outputs": [
        {
          "internalType": "string",
          "name": "",
          "type": "string"
        }
      ],
      "stateMutability": "view",
      "type": "function"
    },
    {
      "inputs": [
        {
          "internalType": "uint256",
          "name": "tokenId",
          "type": "uint256"
        }
      ],
      "name": "burn",
      "outputs": [],
      "stateMutability": "nonpayable",
      "type": "function"
    },
    {
      "inputs": [],
      "name": "description",
      "outputs": [
        {
          "internalType": "string",
          "name": "",
          "type": "string"
        }
      ],
      "stateMutability": "view",
      "type": "function"
    },
    {
      "inputs": [
        {
          "internalType": "string",
          "name": "_baseUrl",
          "type": "string"
        },
        {
          "internalType": "uint64",
          "name": "_size",
          "type": "uint64"
        }
      ],
      "name": "drop",
      "outputs": [
        {
          "internalType": "uint256",
          "name": "",
          "type": "uint256"
        }
      ],
      "stateMutability": "nonpayable",
      "type": "function"
    },
    {
      "inputs": [
        {
          "internalType": "uint256",
          "name": "tokenId",
          "type": "uint256"
        }
      ],
      "name": "getApproved",
      "outputs": [
        {
          "internalType": "address",
          "name": "",
          "type": "address"
        }
      ],
      "stateMutability": "view",
      "type": "function"
    },
    {
      "inputs": [
        {
          "internalType": "address",
          "name": "_owner",
          "type": "address"
        },
        {
          "components": [
            {
              "internalType": "string",
              "name": "name",
              "type": "string"
            },
            {
              "internalType": "string",
              "name": "symbol",
              "type": "string"
            },
            {
              "internalType": "string",
              "name": "description",
              "type": "string"
            }
          ],
          "internalType": "struct ExpandableCollection.Info",
          "name": "_info",
          "type": "tuple"
        },
        {
          "internalType": "uint64",
          "name": "_size",
          "type": "uint64"
        },
        {
          "internalType": "string",
          "name": "_baseUrl",
          "type": "string"
        },
        {
          "internalType": "uint16",
          "name": "_royalties",
          "type": "uint16"
        }
      ],
      "name": "initialize",
      "outputs": [],
      "stateMutability": "nonpayable",
      "type": "function"
    },
    {
      "inputs": [
        {
          "internalType": "address",
          "name": "owner",
          "type": "address"
        },
        {
          "internalType": "address",
          "name": "operator",
          "type": "address"
        }
      ],
      "name": "isApprovedForAll",
      "outputs": [
        {
          "internalType": "bool",
          "name": "",
          "type": "bool"
        }
      ],
      "stateMutability": "view",
      "type": "function"
    },
    {
      "inputs": [],
      "name": "name",
      "outputs": [
        {
          "internalType": "string",
          "name": "",
          "type": "string"
        }
      ],
      "stateMutability": "view",
      "type": "function"
    },
    {
      "inputs": [],
      "name": "owner",
      "outputs": [
        {
          "internalType": "address",
          "name": "",
          "type": "address"
        }
      ],
      "stateMutability": "view",
      "type": "function"
    },
    {
      "inputs": [
        {
          "internalType": "uint256",
          "name": "tokenId",
          "type": "uint256"
        }
      ],
      "name": "ownerOf",
      "outputs": [
        {
          "internalType": "address",
          "name": "",
          "type": "address"
        }
      ],
      "stateMutability": "view",
      "type": "function"
    },
    {
      "inputs": [],
      "name": "renounceOwnership",
      "outputs": [],
      "stateMutability": "nonpayable",
      "type": "function"
    },
    {
      "inputs": [],
      "name": "royalties",
      "outputs": [
        {
          "internalType": "uint16",
          "name": "",
          "type": "uint16"
        }
      ],
      "stateMutability": "view",
      "type": "function"
    },
    {
      "inputs": [
        {
          "internalType": "uint256",
          "name": "",
          "type": "uint256"
        },
        {
          "internalType": "uint256",
          "name": "_value",
          "type": "uint256"
        }
      ],
      "name": "royaltyInfo",
      "outputs": [
        {
          "internalType": "address",
          "name": "receiver",
          "type": "address"
        },
        {
          "internalType": "uint256",
          "name": "royaltyAmount",
          "type": "uint256"
        }
      ],
      "stateMutability": "view",
      "type": "function"
    },
    {
      "inputs": [
        {
          "internalType": "address",
          "name": "from",
          "type": "address"
        },
        {
          "internalType": "address",
          "name": "to",
          "type": "address"
        },
        {
          "internalType": "uint256",
          "name": "tokenId",
          "type": "uint256"
        }
      ],
      "name": "safeTransferFrom",
      "outputs": [],
      "stateMutability": "nonpayable",
      "type": "function"
    },
    {
      "inputs": [
        {
          "internalType": "address",
          "name": "from",
          "type": "address"
        },
        {
          "internalType": "address",
          "name": "to",
          "type": "address"
        },
        {
          "internalType": "uint256",
          "name": "tokenId",
          "type": "uint256"
        },
        {
          "internalType": "bytes",
          "name": "_data",
          "type": "bytes"
        }
      ],
      "name": "safeTransferFrom",
      "outputs": [],
      "stateMutability": "nonpayable",
      "type": "function"
    },
    {
      "inputs": [
        {
          "internalType": "address",
          "name": "operator",
          "type": "address"
        },
        {
          "internalType": "bool",
          "name": "approved",
          "type": "bool"
        }
      ],
      "name": "setApprovalForAll",
      "outputs": [],
      "stateMutability": "nonpayable",
      "type": "function"
    },
    {
      "inputs": [],
      "name": "size",
      "outputs": [
        {
          "internalType": "uint64",
          "name": "",
          "type": "uint64"
        }
      ],
      "stateMutability": "view",
      "type": "function"
    },
    {
      "inputs": [
        {
          "internalType": "bytes4",
          "name": "interfaceId",
          "type": "bytes4"
        }
      ],
      "name": "supportsInterface",
      "outputs": [
        {
          "internalType": "bool",
          "name": "",
          "type": "bool"
        }
      ],
      "stateMutability": "view",
      "type": "function"
    },
    {
      "inputs": [],
      "name": "symbol",
      "outputs": [
        {
          "internalType": "string",
          "name": "",
          "type": "string"
        }
      ],
      "stateMutability": "view",
      "type": "function"
    },
    {
      "inputs": [
        {
          "internalType": "uint256",
          "name": "tokenId",
          "type": "uint256"
        }
      ],
      "name": "tokenURI",
      "outputs": [
        {
          "internalType": "string",
          "name": "",
          "type": "string"
        }
      ],
      "stateMutability": "view",
      "type": "function"
    },
    {
      "inputs": [],
      "name": "totalSupply",
      "outputs": [
        {
          "internalType": "uint256",
          "name": "",
          "type": "uint256"
        }
      ],
      "stateMutability": "view",
      "type": "function"
    },
    {
      "inputs": [
        {
          "internalType": "address",
          "name": "from",
          "type": "address"
        },
        {
          "internalType": "address",
          "name": "to",
          "type": "address"
        },
        {
          "internalType": "uint256",
          "name": "tokenId",
          "type": "uint256"
        }
      ],
      "name": "transferFrom",
      "outputs": [],
      "stateMutability": "nonpayable",
      "type": "function"
    },
    {
      "inputs": [
        {
          "internalType": "address",
          "name": "newOwner",
          "type": "address"
        }
      ],
      "name": "transferOwnership",
      "outputs": [],
      "stateMutability": "nonpayable",
      "type": "function"
    }
  ],
  "transactionHash": "0x32fcc5aaefc48fff50c216ebf6a50649e8f633c29e5de509f92ce6f1bb3bfdd4",
  "args": [],
  "solcInputHash": "da01605fef956b26c80e91162f983756",
  "bytecode": "0x60806040523480156200001157600080fd5b50600054610100900460ff166200002f5760005460ff161562000039565b62000039620000de565b620000a15760405162461bcd60e51b815260206004820152602e60248201527f496e697469616c697a61626c653a20636f6e747261637420697320616c72656160448201526d191e481a5b9a5d1a585b1a5e995960921b606482015260840160405180910390fd5b600054610100900460ff16158015620000c4576000805461ffff19166101011790555b8015620000d7576000805461ff00191690555b5062000102565b6000620000f630620000fc60201b6200121d1760201c565b15905090565b3b151590565b612ced80620001126000396000f3fe608060405234801561001057600080fd5b50600436106101a35760003560e01c806370a08231116100ee578063a22cb46511610097578063c87b56dd11610071578063c87b56dd146103a3578063e985e9c5146103b6578063f053dc5c146103ff578063f2fde38b1461042c57600080fd5b8063a22cb4651461036a578063a567f0c21461037d578063b88d4fde1461039057600080fd5b80638da5cb5b116100c85780638da5cb5b14610317578063949d225d1461033557806395d89b411461036257600080fd5b806370a08231146102f4578063715018a6146103075780637284e4161461030f57600080fd5b80632a55205a116101505780634485f1d21161012a5780634485f1d2146102c65780635bcabf04146102d95780636352211e146102e157600080fd5b80632a55205a1461026157806342842e0e146102a057806342966c68146102b357600080fd5b8063095ea7b311610181578063095ea7b31461021d57806318160ddd1461023257806323b872dd1461024e57600080fd5b806301ffc9a7146101a857806306fdde03146101d0578063081812fc146101e5575b600080fd5b6101bb6101b63660046124b5565b61043f565b60405190151581526020015b60405180910390f35b6101d861049b565b6040516101c7919061253d565b6101f86101f3366004612550565b61052d565b60405173ffffffffffffffffffffffffffffffffffffffff90911681526020016101c7565b61023061022b36600461258d565b61060c565b005b60cb5467ffffffffffffffff165b6040519081526020016101c7565b61023061025c3660046125b7565b610799565b61027461026f3660046125f3565b61083b565b6040805173ffffffffffffffffffffffffffffffffffffffff90931683526020830191909152016101c7565b6102306102ae3660046125b7565b6108ec565b6102306102c1366004612550565b610907565b6102406102d4366004612739565b610982565b6101d8610a2a565b6101f86102ef366004612550565b610ab8565b610240610302366004612787565b610b6a565b610230610c38565b6101d8610cc5565b60975473ffffffffffffffffffffffffffffffffffffffff166101f8565b60cb546103499067ffffffffffffffff1681565b60405167ffffffffffffffff90911681526020016101c7565b6101d8610cd2565b6102306103783660046127a2565b610ce1565b61023061038b3660046127f0565b610cf0565b61023061039e3660046128fe565b610f90565b6101d86103b1366004612550565b611038565b6101bb6103c436600461297a565b73ffffffffffffffffffffffffffffffffffffffff9182166000908152606a6020908152604080832093909416825291909152205460ff1690565b60cb546104199068010000000000000000900461ffff1681565b60405161ffff90911681526020016101c7565b61023061043a366004612787565b6110f0565b60007f2a55205a000000000000000000000000000000000000000000000000000000007fffffffff0000000000000000000000000000000000000000000000000000000083161480610495575061049582611223565b92915050565b6060606580546104aa906129a4565b80601f01602080910402602001604051908101604052809291908181526020018280546104d6906129a4565b80156105235780601f106104f857610100808354040283529160200191610523565b820191906000526020600020905b81548152906001019060200180831161050657829003601f168201915b5050505050905090565b60008181526067602052604081205473ffffffffffffffffffffffffffffffffffffffff166105e3576040517f08c379a000000000000000000000000000000000000000000000000000000000815260206004820152602c60248201527f4552433732313a20617070726f76656420717565727920666f72206e6f6e657860448201527f697374656e7420746f6b656e000000000000000000000000000000000000000060648201526084015b60405180910390fd5b5060009081526069602052604090205473ffffffffffffffffffffffffffffffffffffffff1690565b600061061782610ab8565b90508073ffffffffffffffffffffffffffffffffffffffff168373ffffffffffffffffffffffffffffffffffffffff1614156106d5576040517f08c379a000000000000000000000000000000000000000000000000000000000815260206004820152602160248201527f4552433732313a20617070726f76616c20746f2063757272656e74206f776e6560448201527f720000000000000000000000000000000000000000000000000000000000000060648201526084016105da565b3373ffffffffffffffffffffffffffffffffffffffff821614806106fe57506106fe81336103c4565b61078a576040517f08c379a000000000000000000000000000000000000000000000000000000000815260206004820152603860248201527f4552433732313a20617070726f76652063616c6c6572206973206e6f74206f7760448201527f6e6572206e6f7220617070726f76656420666f7220616c6c000000000000000060648201526084016105da565b6107948383611306565b505050565b6107a4335b826113a6565b610830576040517f08c379a000000000000000000000000000000000000000000000000000000000815260206004820152603160248201527f4552433732313a207472616e736665722063616c6c6572206973206e6f74206f60448201527f776e6572206e6f7220617070726f76656400000000000000000000000000000060648201526084016105da565b610794838383611516565b6000808061085e60975473ffffffffffffffffffffffffffffffffffffffff1690565b73ffffffffffffffffffffffffffffffffffffffff16141561089c57505060975473ffffffffffffffffffffffffffffffffffffffff1660006108e5565b60975473ffffffffffffffffffffffffffffffffffffffff1660cb54612710906108d69068010000000000000000900461ffff1686612a27565b6108e09190612a64565b915091505b9250929050565b61079483838360405180602001604052806000815250610f90565b6109103361079e565b610976576040517f08c379a000000000000000000000000000000000000000000000000000000000815260206004820152600c60248201527f4e6f7420617070726f766564000000000000000000000000000000000000000060448201526064016105da565b61097f8161177d565b50565b60975460009073ffffffffffffffffffffffffffffffffffffffff163314610a06576040517f08c379a000000000000000000000000000000000000000000000000000000000815260206004820181905260248201527f4f776e61626c653a2063616c6c6572206973206e6f7420746865206f776e657260448201526064016105da565b8251610a199060ca9060208601906123ee565b50610a238261184a565b9392505050565b60ca8054610a37906129a4565b80601f0160208091040260200160405190810160405280929190818152602001828054610a63906129a4565b8015610ab05780601f10610a8557610100808354040283529160200191610ab0565b820191906000526020600020905b815481529060010190602001808311610a9357829003601f168201915b505050505081565b60008181526067602052604081205473ffffffffffffffffffffffffffffffffffffffff1680610495576040517f08c379a000000000000000000000000000000000000000000000000000000000815260206004820152602960248201527f4552433732313a206f776e657220717565727920666f72206e6f6e657869737460448201527f656e7420746f6b656e000000000000000000000000000000000000000000000060648201526084016105da565b600073ffffffffffffffffffffffffffffffffffffffff8216610c0f576040517f08c379a000000000000000000000000000000000000000000000000000000000815260206004820152602a60248201527f4552433732313a2062616c616e636520717565727920666f7220746865207a6560448201527f726f20616464726573730000000000000000000000000000000000000000000060648201526084016105da565b5073ffffffffffffffffffffffffffffffffffffffff1660009081526068602052604090205490565b60975473ffffffffffffffffffffffffffffffffffffffff163314610cb9576040517f08c379a000000000000000000000000000000000000000000000000000000000815260206004820181905260248201527f4f776e61626c653a2063616c6c6572206973206e6f7420746865206f776e657260448201526064016105da565b610cc360006119f5565b565b60c98054610a37906129a4565b6060606680546104aa906129a4565b610cec338383611a6c565b5050565b600054610100900460ff16610d0b5760005460ff1615610d0f565b303b155b610d9b576040517f08c379a000000000000000000000000000000000000000000000000000000000815260206004820152602e60248201527f496e697469616c697a61626c653a20636f6e747261637420697320616c72656160448201527f647920696e697469616c697a656400000000000000000000000000000000000060648201526084016105da565b600054610100900460ff16158015610dda57600080547fffffffffffffffffffffffffffffffffffffffffffffffffffffffffffff0000166101011790555b610dec85600001518660200151611b9a565b610df4611c4b565b610dfd866110f0565b60408501518051610e169160c9916020909101906123ee565b506000835111610e82576040517f08c379a000000000000000000000000000000000000000000000000000000000815260206004820152600e60248201527f456d707479206e6173652055524c00000000000000000000000000000000000060448201526064016105da565b8251610e959060ca9060208601906123ee565b5067ffffffffffffffff841615610eb157610eaf8461184a565b505b6127108261ffff1610610f20576040517f08c379a000000000000000000000000000000000000000000000000000000000815260206004820152601260248201527f526f79616c7469657320746f6f2068696768000000000000000000000000000060448201526064016105da565b60cb80547fffffffffffffffffffffffffffffffffffffffffffff0000ffffffffffffffff166801000000000000000061ffff8516021790558015610f8857600080547fffffffffffffffffffffffffffffffffffffffffffffffffffffffffffff00ff1690555b505050505050565b610f9a33836113a6565b611026576040517f08c379a000000000000000000000000000000000000000000000000000000000815260206004820152603160248201527f4552433732313a207472616e736665722063616c6c6572206973206e6f74206f60448201527f776e6572206e6f7220617070726f76656400000000000000000000000000000060648201526084016105da565b61103284848484611cf2565b50505050565b60008181526067602052604090205460609073ffffffffffffffffffffffffffffffffffffffff166110c6576040517f08c379a000000000000000000000000000000000000000000000000000000000815260206004820152601360248201527f546f6b656e20646f65736e27742065786973740000000000000000000000000060448201526064016105da565b60ca826040516020016110da929190612a9f565b6040516020818303038152906040529050919050565b60975473ffffffffffffffffffffffffffffffffffffffff163314611171576040517f08c379a000000000000000000000000000000000000000000000000000000000815260206004820181905260248201527f4f776e61626c653a2063616c6c6572206973206e6f7420746865206f776e657260448201526064016105da565b73ffffffffffffffffffffffffffffffffffffffff8116611214576040517f08c379a000000000000000000000000000000000000000000000000000000000815260206004820152602660248201527f4f776e61626c653a206e6577206f776e657220697320746865207a65726f206160448201527f646472657373000000000000000000000000000000000000000000000000000060648201526084016105da565b61097f816119f5565b3b151590565b60007fffffffff0000000000000000000000000000000000000000000000000000000082167f80ac58cd0000000000000000000000000000000000000000000000000000000014806112b657507fffffffff0000000000000000000000000000000000000000000000000000000082167f5b5e139f00000000000000000000000000000000000000000000000000000000145b8061049557507f01ffc9a7000000000000000000000000000000000000000000000000000000007fffffffff00000000000000000000000000000000000000000000000000000000831614610495565b600081815260696020526040902080547fffffffffffffffffffffffff00000000000000000000000000000000000000001673ffffffffffffffffffffffffffffffffffffffff8416908117909155819061136082610ab8565b73ffffffffffffffffffffffffffffffffffffffff167f8c5be1e5ebec7d5bd14f71427d1e84f3dd0314c0f7b2291e5b200ac8c7c3b92560405160405180910390a45050565b60008181526067602052604081205473ffffffffffffffffffffffffffffffffffffffff16611457576040517f08c379a000000000000000000000000000000000000000000000000000000000815260206004820152602c60248201527f4552433732313a206f70657261746f7220717565727920666f72206e6f6e657860448201527f697374656e7420746f6b656e000000000000000000000000000000000000000060648201526084016105da565b600061146283610ab8565b90508073ffffffffffffffffffffffffffffffffffffffff168473ffffffffffffffffffffffffffffffffffffffff1614806114d157508373ffffffffffffffffffffffffffffffffffffffff166114b98461052d565b73ffffffffffffffffffffffffffffffffffffffff16145b8061150e575073ffffffffffffffffffffffffffffffffffffffff8082166000908152606a602090815260408083209388168352929052205460ff165b949350505050565b8273ffffffffffffffffffffffffffffffffffffffff1661153682610ab8565b73ffffffffffffffffffffffffffffffffffffffff16146115d9576040517f08c379a000000000000000000000000000000000000000000000000000000000815260206004820152602960248201527f4552433732313a207472616e73666572206f6620746f6b656e2074686174206960448201527f73206e6f74206f776e000000000000000000000000000000000000000000000060648201526084016105da565b73ffffffffffffffffffffffffffffffffffffffff821661167b576040517f08c379a0000000000000000000000000000000000000000000000000000000008152602060048201526024808201527f4552433732313a207472616e7366657220746f20746865207a65726f2061646460448201527f726573730000000000000000000000000000000000000000000000000000000060648201526084016105da565b611686600082611306565b73ffffffffffffffffffffffffffffffffffffffff831660009081526068602052604081208054600192906116bc908490612bce565b909155505073ffffffffffffffffffffffffffffffffffffffff821660009081526068602052604081208054600192906116f7908490612be5565b909155505060008181526067602052604080822080547fffffffffffffffffffffffff00000000000000000000000000000000000000001673ffffffffffffffffffffffffffffffffffffffff86811691821790925591518493918716917fddf252ad1be2c89b69c2b068fc378daa952ba7f163c4a11628f55a4df523b3ef91a4505050565b600061178882610ab8565b9050611795600083611306565b73ffffffffffffffffffffffffffffffffffffffff811660009081526068602052604081208054600192906117cb908490612bce565b909155505060008281526067602052604080822080547fffffffffffffffffffffffff00000000000000000000000000000000000000001690555183919073ffffffffffffffffffffffffffffffffffffffff8416907fddf252ad1be2c89b69c2b068fc378daa952ba7f163c4a11628f55a4df523b3ef908390a45050565b60975460009073ffffffffffffffffffffffffffffffffffffffff1633146118ce576040517f08c379a000000000000000000000000000000000000000000000000000000000815260206004820181905260248201527f4f776e61626c653a2063616c6c6572206973206e6f7420746865206f776e657260448201526064016105da565b60cb5467ffffffffffffffff90811690831611611947576040517f08c379a000000000000000000000000000000000000000000000000000000000815260206004820152600c60248201527f4e6f7420657874656e646564000000000000000000000000000000000000000060448201526064016105da565b60cb546000906119629067ffffffffffffffff166001612bfd565b90505b8267ffffffffffffffff168167ffffffffffffffff16116119b6576119a4338267ffffffffffffffff1660405180602001604052806000815250611d95565b806119ae81612c29565b915050611965565b505060cb80547fffffffffffffffffffffffffffffffffffffffffffffffff00000000000000001667ffffffffffffffff83169081179091555b919050565b6097805473ffffffffffffffffffffffffffffffffffffffff8381167fffffffffffffffffffffffff0000000000000000000000000000000000000000831681179093556040519116919082907f8be0079c531659141344cd1fd0a4f28419497f9722a3daafe3b4186f6b6457e090600090a35050565b8173ffffffffffffffffffffffffffffffffffffffff168373ffffffffffffffffffffffffffffffffffffffff161415611b02576040517f08c379a000000000000000000000000000000000000000000000000000000000815260206004820152601960248201527f4552433732313a20617070726f766520746f2063616c6c65720000000000000060448201526064016105da565b73ffffffffffffffffffffffffffffffffffffffff8381166000818152606a602090815260408083209487168084529482529182902080547fffffffffffffffffffffffffffffffffffffffffffffffffffffffffffffff001686151590811790915591519182527f17307eab39ab6107e8899845ad3d59bd9653f200f220920489ca2b5937696c31910160405180910390a3505050565b600054610100900460ff16611c31576040517f08c379a000000000000000000000000000000000000000000000000000000000815260206004820152602b60248201527f496e697469616c697a61626c653a20636f6e7472616374206973206e6f74206960448201527f6e697469616c697a696e6700000000000000000000000000000000000000000060648201526084016105da565b611c39611e38565b611c41611e38565b610cec8282611ecf565b600054610100900460ff16611ce2576040517f08c379a000000000000000000000000000000000000000000000000000000000815260206004820152602b60248201527f496e697469616c697a61626c653a20636f6e7472616374206973206e6f74206960448201527f6e697469616c697a696e6700000000000000000000000000000000000000000060648201526084016105da565b611cea611e38565b610cc3611f8d565b611cfd848484611516565b611d098484848461202d565b611032576040517f08c379a000000000000000000000000000000000000000000000000000000000815260206004820152603260248201527f4552433732313a207472616e7366657220746f206e6f6e20455243373231526560448201527f63656976657220696d706c656d656e746572000000000000000000000000000060648201526084016105da565b611d9f838361222c565b611dac600084848461202d565b610794576040517f08c379a000000000000000000000000000000000000000000000000000000000815260206004820152603260248201527f4552433732313a207472616e7366657220746f206e6f6e20455243373231526560448201527f63656976657220696d706c656d656e746572000000000000000000000000000060648201526084016105da565b600054610100900460ff16610cc3576040517f08c379a000000000000000000000000000000000000000000000000000000000815260206004820152602b60248201527f496e697469616c697a61626c653a20636f6e7472616374206973206e6f74206960448201527f6e697469616c697a696e6700000000000000000000000000000000000000000060648201526084016105da565b600054610100900460ff16611f66576040517f08c379a000000000000000000000000000000000000000000000000000000000815260206004820152602b60248201527f496e697469616c697a61626c653a20636f6e7472616374206973206e6f74206960448201527f6e697469616c697a696e6700000000000000000000000000000000000000000060648201526084016105da565b8151611f799060659060208501906123ee565b5080516107949060669060208401906123ee565b600054610100900460ff16612024576040517f08c379a000000000000000000000000000000000000000000000000000000000815260206004820152602b60248201527f496e697469616c697a61626c653a20636f6e7472616374206973206e6f74206960448201527f6e697469616c697a696e6700000000000000000000000000000000000000000060648201526084016105da565b610cc3336119f5565b600073ffffffffffffffffffffffffffffffffffffffff84163b15612221576040517f150b7a0200000000000000000000000000000000000000000000000000000000815273ffffffffffffffffffffffffffffffffffffffff85169063150b7a02906120a4903390899088908890600401612c51565b602060405180830381600087803b1580156120be57600080fd5b505af192505050801561210c575060408051601f3d9081017fffffffffffffffffffffffffffffffffffffffffffffffffffffffffffffffe016820190925261210991810190612c9a565b60015b6121d6573d80801561213a576040519150601f19603f3d011682016040523d82523d6000602084013e61213f565b606091505b5080516121ce576040517f08c379a000000000000000000000000000000000000000000000000000000000815260206004820152603260248201527f4552433732313a207472616e7366657220746f206e6f6e20455243373231526560448201527f63656976657220696d706c656d656e746572000000000000000000000000000060648201526084016105da565b805181602001fd5b7fffffffff00000000000000000000000000000000000000000000000000000000167f150b7a020000000000000000000000000000000000000000000000000000000014905061150e565b506001949350505050565b73ffffffffffffffffffffffffffffffffffffffff82166122a9576040517f08c379a000000000000000000000000000000000000000000000000000000000815260206004820181905260248201527f4552433732313a206d696e7420746f20746865207a65726f206164647265737360448201526064016105da565b60008181526067602052604090205473ffffffffffffffffffffffffffffffffffffffff1615612335576040517f08c379a000000000000000000000000000000000000000000000000000000000815260206004820152601c60248201527f4552433732313a20746f6b656e20616c7265616479206d696e7465640000000060448201526064016105da565b73ffffffffffffffffffffffffffffffffffffffff8216600090815260686020526040812080546001929061236b908490612be5565b909155505060008181526067602052604080822080547fffffffffffffffffffffffff00000000000000000000000000000000000000001673ffffffffffffffffffffffffffffffffffffffff861690811790915590518392907fddf252ad1be2c89b69c2b068fc378daa952ba7f163c4a11628f55a4df523b3ef908290a45050565b8280546123fa906129a4565b90600052602060002090601f01602090048101928261241c5760008555612462565b82601f1061243557805160ff1916838001178555612462565b82800160010185558215612462579182015b82811115612462578251825591602001919060010190612447565b5061246e929150612472565b5090565b5b8082111561246e5760008155600101612473565b7fffffffff000000000000000000000000000000000000000000000000000000008116811461097f57600080fd5b6000602082840312156124c757600080fd5b8135610a2381612487565b6000815180845260005b818110156124f8576020818501810151868301820152016124dc565b8181111561250a576000602083870101525b50601f017fffffffffffffffffffffffffffffffffffffffffffffffffffffffffffffffe0169290920160200192915050565b602081526000610a2360208301846124d2565b60006020828403121561256257600080fd5b5035919050565b803573ffffffffffffffffffffffffffffffffffffffff811681146119f057600080fd5b600080604083850312156125a057600080fd5b6125a983612569565b946020939093013593505050565b6000806000606084860312156125cc57600080fd5b6125d584612569565b92506125e360208501612569565b9150604084013590509250925092565b6000806040838503121561260657600080fd5b50508035926020909101359150565b7f4e487b7100000000000000000000000000000000000000000000000000000000600052604160045260246000fd5b6040516060810167ffffffffffffffff8111828210171561266757612667612615565b60405290565b600067ffffffffffffffff8084111561268857612688612615565b604051601f85017fffffffffffffffffffffffffffffffffffffffffffffffffffffffffffffffe0908116603f011681019082821181831017156126ce576126ce612615565b816040528093508581528686860111156126e757600080fd5b858560208301376000602087830101525050509392505050565b600082601f83011261271257600080fd5b610a238383356020850161266d565b803567ffffffffffffffff811681146119f057600080fd5b6000806040838503121561274c57600080fd5b823567ffffffffffffffff81111561276357600080fd5b61276f85828601612701565b92505061277e60208401612721565b90509250929050565b60006020828403121561279957600080fd5b610a2382612569565b600080604083850312156127b557600080fd5b6127be83612569565b9150602083013580151581146127d357600080fd5b809150509250929050565b803561ffff811681146119f057600080fd5b600080600080600060a0868803121561280857600080fd5b61281186612569565b9450602086013567ffffffffffffffff8082111561282e57600080fd5b908701906060828a03121561284257600080fd5b61284a612644565b82358281111561285957600080fd5b6128658b828601612701565b82525060208301358281111561287a57600080fd5b6128868b828601612701565b60208301525060408301358281111561289e57600080fd5b6128aa8b828601612701565b604083015250809650506128c060408901612721565b945060608801359150808211156128d657600080fd5b506128e388828901612701565b9250506128f2608087016127de565b90509295509295909350565b6000806000806080858703121561291457600080fd5b61291d85612569565b935061292b60208601612569565b925060408501359150606085013567ffffffffffffffff81111561294e57600080fd5b8501601f8101871361295f57600080fd5b61296e8782356020840161266d565b91505092959194509250565b6000806040838503121561298d57600080fd5b61299683612569565b915061277e60208401612569565b600181811c908216806129b857607f821691505b602082108114156129f2577f4e487b7100000000000000000000000000000000000000000000000000000000600052602260045260246000fd5b50919050565b7f4e487b7100000000000000000000000000000000000000000000000000000000600052601160045260246000fd5b6000817fffffffffffffffffffffffffffffffffffffffffffffffffffffffffffffffff0483118215151615612a5f57612a5f6129f8565b500290565b600082612a9a577f4e487b7100000000000000000000000000000000000000000000000000000000600052601260045260246000fd5b500490565b600080845481600182811c915080831680612abb57607f831692505b6020808410821415612af4577f4e487b710000000000000000000000000000000000000000000000000000000086526022600452602486fd5b818015612b085760018114612b3757612b64565b7fffffffffffffffffffffffffffffffffffffffffffffffffffffffffffffff00861689528489019650612b64565b60008b81526020902060005b86811015612b5c5781548b820152908501908301612b43565b505084890196505b507f2f000000000000000000000000000000000000000000000000000000000000008652600186019550888652612bc08187017f2e6a736f6e000000000000000000000000000000000000000000000000000000815260050190565b9a9950505050505050505050565b600082821015612be057612be06129f8565b500390565b60008219821115612bf857612bf86129f8565b500190565b600067ffffffffffffffff808316818516808303821115612c2057612c206129f8565b01949350505050565b600067ffffffffffffffff80831681811415612c4757612c476129f8565b6001019392505050565b600073ffffffffffffffffffffffffffffffffffffffff808716835280861660208401525083604083015260806060830152612c9060808301846124d2565b9695505050505050565b600060208284031215612cac57600080fd5b8151610a238161248756fea264697066735822122051823765befbc40931309a0c9c1978c8175d9f06a73835b1bad3ce7395fd7a4364736f6c63430008090033",
  "devdoc": {
    "kind": "dev",
    "methods": {
      "approve(address,uint256)": {
        "details": "See {IERC721-approve}."
      },
      "balanceOf(address)": {
        "details": "See {IERC721-balanceOf}."
      },
      "burn(uint256)": {
        "params": {
          "tokenId": "token edition identifier to burn"
        }
      },
      "constructor": {
        "custom:oz-upgrades-unsafe-allow": "constructor"
      },
      "getApproved(uint256)": {
        "details": "See {IERC721-getApproved}."
      },
      "initialize(address,(string,string,string),uint64,string,uint16)": {
        "params": {
          "_baseUrl": "sad",
          "_info": "token properties",
          "_owner": "can authorize, mint, gets royalties and a dividend of sales, can update the content URL.",
          "_royalties": "perpetual royalties paid to the creator upon token selling",
          "_size": "number of NFTs that can be minted from this contract: set to 0 for unbound"
        }
      },
      "isApprovedForAll(address,address)": {
        "details": "See {IERC721-isApprovedForAll}."
      },
      "name()": {
        "details": "See {IERC721Metadata-name}."
      },
      "owner()": {
        "details": "Returns the address of the current owner."
      },
      "ownerOf(uint256)": {
        "details": "See {IERC721-ownerOf}."
      },
      "renounceOwnership()": {
        "details": "Leaves the contract without owner. It will not be possible to call `onlyOwner` functions anymore. Can only be called by the current owner. NOTE: Renouncing ownership will leave the contract without an owner, thereby removing any functionality that is only available to the owner."
      },
      "royaltyInfo(uint256,uint256)": {
        "params": {
          "_value": "the sale price for this token"
        }
      },
      "safeTransferFrom(address,address,uint256)": {
        "details": "See {IERC721-safeTransferFrom}."
      },
      "safeTransferFrom(address,address,uint256,bytes)": {
        "details": "See {IERC721-safeTransferFrom}."
      },
      "setApprovalForAll(address,bool)": {
        "details": "See {IERC721-setApprovalForAll}."
      },
      "symbol()": {
        "details": "See {IERC721Metadata-symbol}."
      },
      "tokenURI(uint256)": {
        "params": {
          "tokenId": "token id to get uri for"
        },
        "returns": {
          "_0": "base64-encoded json metadata object"
        }
      },
      "transferFrom(address,address,uint256)": {
        "details": "See {IERC721-transferFrom}."
      },
      "transferOwnership(address)": {
        "details": "Transfers ownership of the contract to a new account (`newOwner`). Can only be called by the current owner."
      }
    },
    "version": 1
  },
  "userdoc": {
    "kind": "user",
    "methods": {
      "burn(uint256)": {
        "notice": "User burn function for token id. "
      },
      "initialize(address,(string,string,string),uint64,string,uint16)": {
        "notice": "Creates a new edition and sets the only allowed minter to the address that creates/owns the edition: this can be re-assigned or updated later. "
      },
      "royaltyInfo(uint256,uint256)": {
        "notice": "ERC2981 - Gets royalty information for token"
      },
      "tokenURI(uint256)": {
        "notice": "Get URI for given token id "
      },
      "totalSupply()": {
        "notice": "Returns the number of tokens minted so far "
      }
    },
    "notice": "This contract allows dynamic NFT minting.  Operations allow for selling publicly, partial or total giveaways, direct giveaways and rewardings.",
    "version": 1
  },
  "storageLayout": {
    "storage": [
      {
        "astId": 154,
        "contract": "contracts/ExpandableCollection.sol:ExpandableCollection",
        "label": "_initialized",
        "offset": 0,
        "slot": "0",
        "type": "t_bool"
      },
      {
        "astId": 157,
        "contract": "contracts/ExpandableCollection.sol:ExpandableCollection",
        "label": "_initializing",
        "offset": 1,
        "slot": "0",
        "type": "t_bool"
      },
      {
        "astId": 1531,
        "contract": "contracts/ExpandableCollection.sol:ExpandableCollection",
        "label": "__gap",
        "offset": 0,
        "slot": "1",
        "type": "t_array(t_uint256)50_storage"
      },
      {
        "astId": 1854,
        "contract": "contracts/ExpandableCollection.sol:ExpandableCollection",
        "label": "__gap",
        "offset": 0,
        "slot": "51",
        "type": "t_array(t_uint256)50_storage"
      },
      {
        "astId": 250,
        "contract": "contracts/ExpandableCollection.sol:ExpandableCollection",
        "label": "_name",
        "offset": 0,
        "slot": "101",
        "type": "t_string_storage"
      },
      {
        "astId": 252,
        "contract": "contracts/ExpandableCollection.sol:ExpandableCollection",
        "label": "_symbol",
        "offset": 0,
        "slot": "102",
        "type": "t_string_storage"
      },
      {
        "astId": 256,
        "contract": "contracts/ExpandableCollection.sol:ExpandableCollection",
        "label": "_owners",
        "offset": 0,
        "slot": "103",
        "type": "t_mapping(t_uint256,t_address)"
      },
      {
        "astId": 260,
        "contract": "contracts/ExpandableCollection.sol:ExpandableCollection",
        "label": "_balances",
        "offset": 0,
        "slot": "104",
        "type": "t_mapping(t_address,t_uint256)"
      },
      {
        "astId": 264,
        "contract": "contracts/ExpandableCollection.sol:ExpandableCollection",
        "label": "_tokenApprovals",
        "offset": 0,
        "slot": "105",
        "type": "t_mapping(t_uint256,t_address)"
      },
      {
        "astId": 270,
        "contract": "contracts/ExpandableCollection.sol:ExpandableCollection",
        "label": "_operatorApprovals",
        "offset": 0,
        "slot": "106",
        "type": "t_mapping(t_address,t_mapping(t_address,t_bool))"
      },
      {
        "astId": 1081,
        "contract": "contracts/ExpandableCollection.sol:ExpandableCollection",
        "label": "__gap",
        "offset": 0,
        "slot": "107",
        "type": "t_array(t_uint256)44_storage"
      },
      {
        "astId": 10,
        "contract": "contracts/ExpandableCollection.sol:ExpandableCollection",
        "label": "_owner",
        "offset": 0,
        "slot": "151",
        "type": "t_address"
      },
      {
        "astId": 124,
        "contract": "contracts/ExpandableCollection.sol:ExpandableCollection",
        "label": "__gap",
        "offset": 0,
        "slot": "152",
        "type": "t_array(t_uint256)49_storage"
      },
      {
        "astId": 3727,
        "contract": "contracts/ExpandableCollection.sol:ExpandableCollection",
        "label": "description",
        "offset": 0,
        "slot": "201",
        "type": "t_string_storage"
      },
      {
        "astId": 3729,
        "contract": "contracts/ExpandableCollection.sol:ExpandableCollection",
        "label": "baseUrl",
        "offset": 0,
        "slot": "202",
        "type": "t_string_storage"
      },
      {
        "astId": 3731,
        "contract": "contracts/ExpandableCollection.sol:ExpandableCollection",
        "label": "size",
        "offset": 0,
        "slot": "203",
        "type": "t_uint64"
      },
      {
        "astId": 3733,
        "contract": "contracts/ExpandableCollection.sol:ExpandableCollection",
        "label": "royalties",
        "offset": 8,
        "slot": "203",
        "type": "t_uint16"
      }
    ],
    "types": {
      "t_address": {
        "encoding": "inplace",
        "label": "address",
        "numberOfBytes": "20"
      },
      "t_array(t_uint256)44_storage": {
        "base": "t_uint256",
        "encoding": "inplace",
        "label": "uint256[44]",
        "numberOfBytes": "1408"
      },
      "t_array(t_uint256)49_storage": {
        "base": "t_uint256",
        "encoding": "inplace",
        "label": "uint256[49]",
        "numberOfBytes": "1568"
      },
      "t_array(t_uint256)50_storage": {
        "base": "t_uint256",
        "encoding": "inplace",
        "label": "uint256[50]",
        "numberOfBytes": "1600"
      },
      "t_bool": {
        "encoding": "inplace",
        "label": "bool",
        "numberOfBytes": "1"
      },
      "t_mapping(t_address,t_bool)": {
        "encoding": "mapping",
        "key": "t_address",
        "label": "mapping(address => bool)",
        "numberOfBytes": "32",
        "value": "t_bool"
      },
      "t_mapping(t_address,t_mapping(t_address,t_bool))": {
        "encoding": "mapping",
        "key": "t_address",
        "label": "mapping(address => mapping(address => bool))",
        "numberOfBytes": "32",
        "value": "t_mapping(t_address,t_bool)"
      },
      "t_mapping(t_address,t_uint256)": {
        "encoding": "mapping",
        "key": "t_address",
        "label": "mapping(address => uint256)",
        "numberOfBytes": "32",
        "value": "t_uint256"
      },
      "t_mapping(t_uint256,t_address)": {
        "encoding": "mapping",
        "key": "t_uint256",
        "label": "mapping(uint256 => address)",
        "numberOfBytes": "32",
        "value": "t_address"
      },
      "t_string_storage": {
        "encoding": "bytes",
        "label": "string",
        "numberOfBytes": "32"
      },
      "t_uint16": {
        "encoding": "inplace",
        "label": "uint16",
        "numberOfBytes": "2"
      },
      "t_uint256": {
        "encoding": "inplace",
        "label": "uint256",
        "numberOfBytes": "32"
      },
      "t_uint64": {
        "encoding": "inplace",
        "label": "uint64",
        "numberOfBytes": "8"
      }
    }
  }
}