{
  "address": "0x320748c7fC5dcfeAA0Bfec07D7eBc6197f07E1DC",
  "abi": [
    {
      "inputs": [
        {
          "internalType": "address",
          "name": "implementation",
          "type": "address"
        }
      ],
      "stateMutability": "nonpayable",
      "type": "constructor"
    },
    {
      "anonymous": false,
      "inputs": [
        {
          "indexed": true,
          "internalType": "uint256",
          "name": "index",
          "type": "uint256"
        },
        {
          "indexed": true,
          "internalType": "address",
          "name": "creator",
          "type": "address"
        },
        {
          "indexed": false,
          "internalType": "string",
          "name": "baseUrl",
          "type": "string"
        },
        {
          "indexed": false,
          "internalType": "uint256",
          "name": "size",
          "type": "uint256"
        },
        {
          "indexed": false,
          "internalType": "address",
          "name": "contractAddress",
          "type": "address"
        }
      ],
      "name": "CreatedCollection",
      "type": "event"
    },
    {
      "anonymous": false,
      "inputs": [
        {
          "indexed": true,
          "internalType": "bytes32",
          "name": "role",
          "type": "bytes32"
        },
        {
          "indexed": true,
          "internalType": "bytes32",
          "name": "previousAdminRole",
          "type": "bytes32"
        },
        {
          "indexed": true,
          "internalType": "bytes32",
          "name": "newAdminRole",
          "type": "bytes32"
        }
      ],
      "name": "RoleAdminChanged",
      "type": "event"
    },
    {
      "anonymous": false,
      "inputs": [
        {
          "indexed": true,
          "internalType": "bytes32",
          "name": "role",
          "type": "bytes32"
        },
        {
          "indexed": true,
          "internalType": "address",
          "name": "account",
          "type": "address"
        },
        {
          "indexed": true,
          "internalType": "address",
          "name": "sender",
          "type": "address"
        }
      ],
      "name": "RoleGranted",
      "type": "event"
    },
    {
      "anonymous": false,
      "inputs": [
        {
          "indexed": true,
          "internalType": "bytes32",
          "name": "role",
          "type": "bytes32"
        },
        {
          "indexed": true,
          "internalType": "address",
          "name": "account",
          "type": "address"
        },
        {
          "indexed": true,
          "internalType": "address",
          "name": "sender",
          "type": "address"
        }
      ],
      "name": "RoleRevoked",
      "type": "event"
    },
    {
      "inputs": [],
      "name": "ARTIST_ROLE",
      "outputs": [
        {
          "internalType": "bytes32",
          "name": "",
          "type": "bytes32"
        }
      ],
      "stateMutability": "view",
      "type": "function"
    },
    {
      "inputs": [],
      "name": "DEFAULT_ADMIN_ROLE",
      "outputs": [
        {
          "internalType": "bytes32",
          "name": "",
          "type": "bytes32"
        }
      ],
      "stateMutability": "view",
      "type": "function"
    },
    {
      "inputs": [],
      "name": "beacon",
      "outputs": [
        {
          "internalType": "contract UpgradeableBeacon",
          "name": "",
          "type": "address"
        }
      ],
      "stateMutability": "view",
      "type": "function"
    },
    {
      "inputs": [
        {
          "internalType": "string",
          "name": "name",
          "type": "string"
        }
      ],
      "name": "byName",
      "outputs": [
        {
          "internalType": "contract ExpandableCollection",
          "name": "",
          "type": "address"
        }
      ],
      "stateMutability": "view",
      "type": "function"
    },
    {
      "inputs": [
        {
          "components": [
            {
              "internalType": "string",
              "name": "name",
              "type": "string"
            },
            {
              "internalType": "string",
              "name": "symbol",
              "type": "string"
            },
            {
              "internalType": "string",
              "name": "description",
              "type": "string"
            }
          ],
          "internalType": "struct ExpandableCollection.Info",
          "name": "info",
          "type": "tuple"
        },
        {
          "internalType": "uint64",
          "name": "size",
          "type": "uint64"
        },
        {
          "internalType": "string",
          "name": "baseUrl",
          "type": "string"
        },
        {
          "internalType": "uint16",
          "name": "royalties",
          "type": "uint16"
        }
      ],
      "name": "create",
      "outputs": [
        {
          "internalType": "address",
          "name": "",
          "type": "address"
        }
      ],
      "stateMutability": "nonpayable",
      "type": "function"
    },
    {
      "inputs": [
        {
          "internalType": "bytes32",
          "name": "role",
          "type": "bytes32"
        }
      ],
      "name": "getRoleAdmin",
      "outputs": [
        {
          "internalType": "bytes32",
          "name": "",
          "type": "bytes32"
        }
      ],
      "stateMutability": "view",
      "type": "function"
    },
    {
      "inputs": [
        {
          "internalType": "bytes32",
          "name": "role",
          "type": "bytes32"
        },
        {
          "internalType": "address",
          "name": "account",
          "type": "address"
        }
      ],
      "name": "grantRole",
      "outputs": [],
      "stateMutability": "nonpayable",
      "type": "function"
    },
    {
      "inputs": [
        {
          "internalType": "bytes32",
          "name": "role",
          "type": "bytes32"
        },
        {
          "internalType": "address",
          "name": "account",
          "type": "address"
        }
      ],
      "name": "hasRole",
      "outputs": [
        {
          "internalType": "bool",
          "name": "",
          "type": "bool"
        }
      ],
      "stateMutability": "view",
      "type": "function"
    },
    {
      "inputs": [],
      "name": "instances",
      "outputs": [
        {
          "internalType": "uint256",
          "name": "",
          "type": "uint256"
        }
      ],
      "stateMutability": "view",
      "type": "function"
    },
    {
      "inputs": [
        {
          "internalType": "bytes32",
          "name": "role",
          "type": "bytes32"
        },
        {
          "internalType": "address",
          "name": "account",
          "type": "address"
        }
      ],
      "name": "renounceRole",
      "outputs": [],
      "stateMutability": "nonpayable",
      "type": "function"
    },
    {
      "inputs": [
        {
          "internalType": "bytes32",
          "name": "role",
          "type": "bytes32"
        },
        {
          "internalType": "address",
          "name": "account",
          "type": "address"
        }
      ],
      "name": "revokeRole",
      "outputs": [],
      "stateMutability": "nonpayable",
      "type": "function"
    },
    {
      "inputs": [
        {
          "internalType": "bytes4",
          "name": "interfaceId",
          "type": "bytes4"
        }
      ],
      "name": "supportsInterface",
      "outputs": [
        {
          "internalType": "bool",
          "name": "",
          "type": "bool"
        }
      ],
      "stateMutability": "view",
      "type": "function"
    },
    {
      "inputs": [
        {
          "internalType": "address",
          "name": "implementation",
          "type": "address"
        }
      ],
      "name": "upgrade",
      "outputs": [],
      "stateMutability": "nonpayable",
      "type": "function"
    }
  ],
  "transactionHash": "0x2c3c0fd09c016cf804fa6e625b869dd1388a0049a8f0a0d372713a4407380a5c",
  "args": [
    "0x108367103c029CAcf0df22AAFB9c80549baD6514"
  ],
  "solcInputHash": "c1a3f308238e4280085555460b0ad8a3",
  "bytecode": "0x60a06040523480156200001157600080fd5b506040516200287c3803806200287c8339810160408190526200003491620001dd565b6000816040516200004590620001cf565b6001600160a01b039091168152602001604051809103906000f08015801562000072573d6000803e3d6000fd5b5090506001600160a01b03811663f2fde38b336040516001600160e01b031960e084901b1681526001600160a01b039091166004820152602401600060405180830381600087803b158015620000c757600080fd5b505af1158015620000dc573d6000803e3d6000fd5b505050506001600160a01b038116608052620000fa6000336200012e565b620001267f877a78dc988c0ec5f58453b44888a55eb39755c3d5ed8d8ea990912aa3ef29c6336200012e565b50506200020f565b6000828152602081815260408083206001600160a01b038516845290915290205460ff16620001cb576000828152602081815260408083206001600160a01b03851684529091529020805460ff191660011790556200018a3390565b6001600160a01b0316816001600160a01b0316837f2f8788117e7eff1d82e926ec794901d17c78024a50270940304540a733656f0d60405160405180910390a45b5050565b6106d780620021a583390190565b600060208284031215620001f057600080fd5b81516001600160a01b03811681146200020857600080fd5b9392505050565b608051611f6c62000239600039600081816101ae015281816103a001526106dd0152611f6c6000f3fe60806040523480156200001157600080fd5b5060043610620000f15760003560e01c806359659e901162000097578063a217fddf116200006e578063a217fddf1462000254578063a966a0df146200025d578063b82fc3d51462000285578063d547741f146200029c57600080fd5b806359659e9014620001a857806391d1485414620001f65780639b4788ec146200023d57600080fd5b80632f2ff15d11620000cc5780632f2ff15d146200017057806336568abe14620001875780634d2ace66146200019e57600080fd5b806301ffc9a714620000f65780630900f0101462000122578063248a9ca3146200013b575b600080fd5b6200010d6200010736600462000dd7565b620002b3565b60405190151581526020015b60405180910390f35b620001396200013336600462000e45565b6200034d565b005b620001616200014c36600462000e63565b60009081526020819052604090206001015490565b60405190815260200162000119565b620001396200018136600462000e7d565b62000402565b620001396200019836600462000e7d565b62000431565b62000161620004ec565b620001d07f000000000000000000000000000000000000000000000000000000000000000081565b60405173ffffffffffffffffffffffffffffffffffffffff909116815260200162000119565b6200010d6200020736600462000e7d565b60009182526020828152604080842073ffffffffffffffffffffffffffffffffffffffff93909316845291905290205460ff1690565b620001d06200024e36600462000fba565b620004fd565b62000161600081565b620001617f877a78dc988c0ec5f58453b44888a55eb39755c3d5ed8d8ea990912aa3ef29c681565b620001d06200029636600462001027565b620005f6565b62000139620002ad36600462000e7d565b620008b4565b60007fffffffff0000000000000000000000000000000000000000000000000000000082167f7965db0b0000000000000000000000000000000000000000000000000000000014806200034757507f01ffc9a7000000000000000000000000000000000000000000000000000000007fffffffff000000000000000000000000000000000000000000000000000000008316145b92915050565b60006200035b8133620008de565b6040517f3659cfe600000000000000000000000000000000000000000000000000000000815273ffffffffffffffffffffffffffffffffffffffff83811660048301527f00000000000000000000000000000000000000000000000000000000000000001690633659cfe690602401600060405180830381600087803b158015620003e557600080fd5b505af1158015620003fa573d6000803e3d6000fd5b505050505050565b600082815260208190526040902060010154620004208133620008de565b6200042c8383620009b7565b505050565b73ffffffffffffffffffffffffffffffffffffffff81163314620004dc576040517f08c379a000000000000000000000000000000000000000000000000000000000815260206004820152602f60248201527f416363657373436f6e74726f6c3a2063616e206f6e6c792072656e6f756e636560448201527f20726f6c657320666f722073656c66000000000000000000000000000000000060648201526084015b60405180910390fd5b620004e8828262000aa9565b5050565b6000620004f860015490565b905090565b60008073ffffffffffffffffffffffffffffffffffffffff166002836040516200052891906200116a565b9081526040519081900360200190205473ffffffffffffffffffffffffffffffffffffffff161415620005b8576040517f08c379a000000000000000000000000000000000000000000000000000000000815260206004820152601860248201527f436f6c6c656374696f6e20646f65736e277420657869737400000000000000006044820152606401620004d3565b600282604051620005ca91906200116a565b9081526040519081900360200190205473ffffffffffffffffffffffffffffffffffffffff1692915050565b60007f877a78dc988c0ec5f58453b44888a55eb39755c3d5ed8d8ea990912aa3ef29c6620006258133620008de565b85516040516000916002916200063c91906200116a565b9081526040519081900360200190205473ffffffffffffffffffffffffffffffffffffffff1614620006cb576040517f08c379a000000000000000000000000000000000000000000000000000000000815260206004820152601560248201527f4475706c69636174656420636f6c6c656374696f6e00000000000000000000006044820152606401620004d3565b6000620006d760015490565b905060007f00000000000000000000000000000000000000000000000000000000000000007fa567f0c200000000000000000000000000000000000000000000000000000000338a8a8a8a60405160240162000738959493929190620011d4565b604080517fffffffffffffffffffffffffffffffffffffffffffffffffffffffffffffffe08184030181529181526020820180517bffffffffffffffffffffffffffffffffffffffffffffffffffffffff167fffffffff00000000000000000000000000000000000000000000000000000000909416939093179092529051620007c29062000dc9565b620007cf929190620012ab565b604051809103906000f080158015620007ec573d6000803e3d6000fd5b50905080600289600001516040516200080691906200116a565b908152604051908190036020018120805473ffffffffffffffffffffffffffffffffffffffff939093167fffffffffffffffffffffffff000000000000000000000000000000000000000090931692909217909155339083907fbb2b97fb1dd16e0f0396d2ab5d3c54fe4c3d4e378f025b5821f13e394ecd05c19062000892908a908c908790620012dc565b60405180910390a3620008a9600180546001019055565b979650505050505050565b600082815260208190526040902060010154620008d28133620008de565b6200042c838362000aa9565b60008281526020818152604080832073ffffffffffffffffffffffffffffffffffffffff8516845290915290205460ff16620004e857620009378173ffffffffffffffffffffffffffffffffffffffff16601462000b61565b6200094483602062000b61565b6040516020016200095792919062001327565b604080517fffffffffffffffffffffffffffffffffffffffffffffffffffffffffffffffe0818403018152908290527f08c379a0000000000000000000000000000000000000000000000000000000008252620004d391600401620013ac565b60008281526020818152604080832073ffffffffffffffffffffffffffffffffffffffff8516845290915290205460ff16620004e85760008281526020818152604080832073ffffffffffffffffffffffffffffffffffffffff85168452909152902080547fffffffffffffffffffffffffffffffffffffffffffffffffffffffffffffff0016600117905562000a4b3390565b73ffffffffffffffffffffffffffffffffffffffff168173ffffffffffffffffffffffffffffffffffffffff16837f2f8788117e7eff1d82e926ec794901d17c78024a50270940304540a733656f0d60405160405180910390a45050565b60008281526020818152604080832073ffffffffffffffffffffffffffffffffffffffff8516845290915290205460ff1615620004e85760008281526020818152604080832073ffffffffffffffffffffffffffffffffffffffff8516808552925280832080547fffffffffffffffffffffffffffffffffffffffffffffffffffffffffffffff0016905551339285917ff6391f5c32d9c69d2a47ea670b442974b53935d1edc7fd64eb21e047a839171b9190a45050565b6060600062000b72836002620013f0565b62000b7f90600262001430565b67ffffffffffffffff81111562000b9a5762000b9a62000eac565b6040519080825280601f01601f19166020018201604052801562000bc5576020820181803683370190505b5090507f30000000000000000000000000000000000000000000000000000000000000008160008151811062000bff5762000bff6200144b565b60200101907effffffffffffffffffffffffffffffffffffffffffffffffffffffffffffff1916908160001a9053507f78000000000000000000000000000000000000000000000000000000000000008160018151811062000c655762000c656200144b565b60200101907effffffffffffffffffffffffffffffffffffffffffffffffffffffffffffff1916908160001a905350600062000ca3846002620013f0565b62000cb090600162001430565b90505b600181111562000d57577f303132333435363738396162636465660000000000000000000000000000000085600f166010811062000cf55762000cf56200144b565b1a60f81b82828151811062000d0e5762000d0e6200144b565b60200101907effffffffffffffffffffffffffffffffffffffffffffffffffffffffffffff1916908160001a90535060049490941c9362000d4f816200147a565b905062000cb3565b50831562000dc2576040517f08c379a000000000000000000000000000000000000000000000000000000000815260206004820181905260248201527f537472696e67733a20686578206c656e67746820696e73756666696369656e746044820152606401620004d3565b9392505050565b610a8480620014b383390190565b60006020828403121562000dea57600080fd5b81357fffffffff000000000000000000000000000000000000000000000000000000008116811462000dc257600080fd5b803573ffffffffffffffffffffffffffffffffffffffff8116811462000e4057600080fd5b919050565b60006020828403121562000e5857600080fd5b62000dc28262000e1b565b60006020828403121562000e7657600080fd5b5035919050565b6000806040838503121562000e9157600080fd5b8235915062000ea36020840162000e1b565b90509250929050565b7f4e487b7100000000000000000000000000000000000000000000000000000000600052604160045260246000fd5b6040516060810167ffffffffffffffff8111828210171562000f015762000f0162000eac565b60405290565b600082601f83011262000f1957600080fd5b813567ffffffffffffffff8082111562000f375762000f3762000eac565b604051601f83017fffffffffffffffffffffffffffffffffffffffffffffffffffffffffffffffe0908116603f0116810190828211818310171562000f805762000f8062000eac565b8160405283815286602085880101111562000f9a57600080fd5b836020870160208301376000602085830101528094505050505092915050565b60006020828403121562000fcd57600080fd5b813567ffffffffffffffff81111562000fe557600080fd5b62000ff38482850162000f07565b949350505050565b803567ffffffffffffffff8116811462000e4057600080fd5b803561ffff8116811462000e4057600080fd5b600080600080608085870312156200103e57600080fd5b843567ffffffffffffffff808211156200105757600080fd5b90860190606082890312156200106c57600080fd5b6200107662000edb565b8235828111156200108657600080fd5b620010948a82860162000f07565b825250602083013582811115620010aa57600080fd5b620010b88a82860162000f07565b602083015250604083013582811115620010d157600080fd5b620010df8a82860162000f07565b6040830152509550620010f56020880162000ffb565b945060408701359150808211156200110c57600080fd5b506200111b8782880162000f07565b9250506200112c6060860162001014565b905092959194509250565b60005b83811015620011545781810151838201526020016200113a565b8381111562001164576000848401525b50505050565b600082516200117e81846020870162001137565b9190910192915050565b60008151808452620011a281602086016020860162001137565b601f017fffffffffffffffffffffffffffffffffffffffffffffffffffffffffffffffe0169290920160200192915050565b73ffffffffffffffffffffffffffffffffffffffff8616815260a0602082015260008551606060a08401526200120f61010084018262001188565b905060208701517fffffffffffffffffffffffffffffffffffffffffffffffffffffffffffffff60808584030160c08601526200124d838362001188565b925060408901519150808584030160e0860152506200126d828262001188565b91505067ffffffffffffffff86166040840152828103606084015262001294818662001188565b91505061ffff831660808301529695505050505050565b73ffffffffffffffffffffffffffffffffffffffff8316815260406020820152600062000ff3604083018462001188565b606081526000620012f1606083018662001188565b905067ffffffffffffffff8416602083015273ffffffffffffffffffffffffffffffffffffffff83166040830152949350505050565b7f416363657373436f6e74726f6c3a206163636f756e74200000000000000000008152600083516200136181601785016020880162001137565b7f206973206d697373696e6720726f6c65200000000000000000000000000000006017918401918201528351620013a081602884016020880162001137565b01602801949350505050565b60208152600062000dc2602083018462001188565b7f4e487b7100000000000000000000000000000000000000000000000000000000600052601160045260246000fd5b6000817fffffffffffffffffffffffffffffffffffffffffffffffffffffffffffffffff04831182151516156200142b576200142b620013c1565b500290565b60008219821115620014465762001446620013c1565b500190565b7f4e487b7100000000000000000000000000000000000000000000000000000000600052603260045260246000fd5b6000816200148c576200148c620013c1565b507fffffffffffffffffffffffffffffffffffffffffffffffffffffffffffffffff019056fe608060405260405162000a8438038062000a848339810160408190526200002691620004d4565b6200005360017fa3f0ad74e5423aebfd80d3ef4346578335a9a72aeaee59ff6cb3582b35133d51620005a2565b60008051602062000a3d83398151915214620000735762000073620005c8565b620000818282600062000089565b50506200064f565b62000094836200016e565b6040516001600160a01b038416907f1cf3b03a6cf19fa2baba4df148e9dcabedea7f8a5c07840e207e5c089be95d3e90600090a2600082511180620000d65750805b15620001695762000167836001600160a01b0316635c60da1b6040518163ffffffff1660e01b815260040160206040518083038186803b1580156200011a57600080fd5b505afa1580156200012f573d6000803e3d6000fd5b505050506040513d601f19601f82011682018060405250810190620001559190620005de565b836200031f60201b620000291760201c565b505b505050565b62000184816200034e60201b620000551760201c565b620001e45760405162461bcd60e51b815260206004820152602560248201527f455243313936373a206e657720626561636f6e206973206e6f74206120636f6e6044820152641d1c9858dd60da1b60648201526084015b60405180910390fd5b6200026e816001600160a01b0316635c60da1b6040518163ffffffff1660e01b815260040160206040518083038186803b1580156200022257600080fd5b505afa15801562000237573d6000803e3d6000fd5b505050506040513d601f19601f820116820180604052508101906200025d9190620005de565b6200034e60201b620000551760201c565b620002d55760405162461bcd60e51b815260206004820152603060248201527f455243313936373a20626561636f6e20696d706c656d656e746174696f6e206960448201526f1cc81b9bdd08184818dbdb9d1c9858dd60821b6064820152608401620001db565b80620002fe60008051602062000a3d83398151915260001b6200035460201b6200005b1760201c565b80546001600160a01b0319166001600160a01b039290921691909117905550565b606062000347838360405180606001604052806027815260200162000a5d6027913962000357565b9392505050565b3b151590565b90565b6060833b620003b85760405162461bcd60e51b815260206004820152602660248201527f416464726573733a2064656c65676174652063616c6c20746f206e6f6e2d636f6044820152651b9d1c9858dd60d21b6064820152608401620001db565b600080856001600160a01b031685604051620003d59190620005fc565b600060405180830381855af49150503d806000811462000412576040519150601f19603f3d011682016040523d82523d6000602084013e62000417565b606091505b5090925090506200042a82828662000434565b9695505050505050565b606083156200044557508162000347565b825115620004565782518084602001fd5b8160405162461bcd60e51b8152600401620001db91906200061a565b80516001600160a01b03811681146200048a57600080fd5b919050565b634e487b7160e01b600052604160045260246000fd5b60005b83811015620004c2578181015183820152602001620004a8565b83811115620001675750506000910152565b60008060408385031215620004e857600080fd5b620004f38362000472565b60208401519092506001600160401b03808211156200051157600080fd5b818501915085601f8301126200052657600080fd5b8151818111156200053b576200053b6200048f565b604051601f8201601f19908116603f011681019083821181831017156200056657620005666200048f565b816040528281528860208487010111156200058057600080fd5b62000593836020830160208801620004a5565b80955050505050509250929050565b600082821015620005c357634e487b7160e01b600052601160045260246000fd5b500390565b634e487b7160e01b600052600160045260246000fd5b600060208284031215620005f157600080fd5b620003478262000472565b6000825162000610818460208701620004a5565b9190910192915050565b60208152600082518060208401526200063b816040850160208701620004a5565b601f01601f19169190910160400192915050565b6103de806200065f6000396000f3fe60806040523661001357610011610017565b005b6100115b61002761002261005e565b610120565b565b606061004e838360405180606001604052806027815260200161038260279139610144565b9392505050565b3b151590565b90565b600061009e7fa3f0ad74e5423aebfd80d3ef4346578335a9a72aeaee59ff6cb3582b35133d505473ffffffffffffffffffffffffffffffffffffffff1690565b73ffffffffffffffffffffffffffffffffffffffff16635c60da1b6040518163ffffffff1660e01b815260040160206040518083038186803b1580156100e357600080fd5b505afa1580156100f7573d6000803e3d6000fd5b505050506040513d601f19601f8201168201806040525081019061011b91906102ae565b905090565b3660008037600080366000845af43d6000803e80801561013f573d6000f35b3d6000fd5b6060833b6101d9576040517f08c379a000000000000000000000000000000000000000000000000000000000815260206004820152602660248201527f416464726573733a2064656c65676174652063616c6c20746f206e6f6e2d636f60448201527f6e7472616374000000000000000000000000000000000000000000000000000060648201526084015b60405180910390fd5b6000808573ffffffffffffffffffffffffffffffffffffffff16856040516102019190610314565b600060405180830381855af49150503d806000811461023c576040519150601f19603f3d011682016040523d82523d6000602084013e610241565b606091505b509150915061025182828661025b565b9695505050505050565b6060831561026a57508161004e565b82511561027a5782518084602001fd5b816040517f08c379a00000000000000000000000000000000000000000000000000000000081526004016101d09190610330565b6000602082840312156102c057600080fd5b815173ffffffffffffffffffffffffffffffffffffffff8116811461004e57600080fd5b60005b838110156102ff5781810151838201526020016102e7565b8381111561030e576000848401525b50505050565b600082516103268184602087016102e4565b9190910192915050565b602081526000825180602084015261034f8160408501602087016102e4565b601f017fffffffffffffffffffffffffffffffffffffffffffffffffffffffffffffffe016919091016040019291505056fe416464726573733a206c6f772d6c6576656c2064656c65676174652063616c6c206661696c6564a26469706673582212204b23ccb4f8e6b385a4ad001426c45db05d280077d9f398a596e4276291fd85aa64736f6c63430008090033a3f0ad74e5423aebfd80d3ef4346578335a9a72aeaee59ff6cb3582b35133d50416464726573733a206c6f772d6c6576656c2064656c65676174652063616c6c206661696c6564a2646970667358221220992a62d35dac4d6d7bda4f911cbb198ab2ef983f87607206b97ba45acb3a821764736f6c63430008090033608060405234801561001057600080fd5b506040516106d73803806106d783398101604081905261002f91610148565b61003833610047565b61004181610097565b50610178565b600080546001600160a01b038381166001600160a01b0319831681178455604051919092169283917f8be0079c531659141344cd1fd0a4f28419497f9722a3daafe3b4186f6b6457e09190a35050565b6100aa8161014260201b61038d1760201c565b6101205760405162461bcd60e51b815260206004820152603360248201527f5570677261646561626c65426561636f6e3a20696d706c656d656e746174696f60448201527f6e206973206e6f74206120636f6e747261637400000000000000000000000000606482015260840160405180910390fd5b600180546001600160a01b0319166001600160a01b0392909216919091179055565b3b151590565b60006020828403121561015a57600080fd5b81516001600160a01b038116811461017157600080fd5b9392505050565b610550806101876000396000f3fe608060405234801561001057600080fd5b50600436106100675760003560e01c8063715018a611610050578063715018a6146100c45780638da5cb5b146100cc578063f2fde38b146100ea57600080fd5b80633659cfe61461006c5780635c60da1b14610081575b600080fd5b61007f61007a3660046104dd565b6100fd565b005b60015473ffffffffffffffffffffffffffffffffffffffff165b60405173ffffffffffffffffffffffffffffffffffffffff909116815260200160405180910390f35b61007f6101d0565b60005473ffffffffffffffffffffffffffffffffffffffff1661009b565b61007f6100f83660046104dd565b61025d565b60005473ffffffffffffffffffffffffffffffffffffffff163314610183576040517f08c379a000000000000000000000000000000000000000000000000000000000815260206004820181905260248201527f4f776e61626c653a2063616c6c6572206973206e6f7420746865206f776e657260448201526064015b60405180910390fd5b61018c81610393565b60405173ffffffffffffffffffffffffffffffffffffffff8216907fbc7cd75a20ee27fd9adebab32041f755214dbc6bffa90cc0225b39da2e5c2d3b90600090a250565b60005473ffffffffffffffffffffffffffffffffffffffff163314610251576040517f08c379a000000000000000000000000000000000000000000000000000000000815260206004820181905260248201527f4f776e61626c653a2063616c6c6572206973206e6f7420746865206f776e6572604482015260640161017a565b61025b6000610468565b565b60005473ffffffffffffffffffffffffffffffffffffffff1633146102de576040517f08c379a000000000000000000000000000000000000000000000000000000000815260206004820181905260248201527f4f776e61626c653a2063616c6c6572206973206e6f7420746865206f776e6572604482015260640161017a565b73ffffffffffffffffffffffffffffffffffffffff8116610381576040517f08c379a000000000000000000000000000000000000000000000000000000000815260206004820152602660248201527f4f776e61626c653a206e6577206f776e657220697320746865207a65726f206160448201527f6464726573730000000000000000000000000000000000000000000000000000606482015260840161017a565b61038a81610468565b50565b3b151590565b803b610421576040517f08c379a000000000000000000000000000000000000000000000000000000000815260206004820152603360248201527f5570677261646561626c65426561636f6e3a20696d706c656d656e746174696f60448201527f6e206973206e6f74206120636f6e747261637400000000000000000000000000606482015260840161017a565b600180547fffffffffffffffffffffffff00000000000000000000000000000000000000001673ffffffffffffffffffffffffffffffffffffffff92909216919091179055565b6000805473ffffffffffffffffffffffffffffffffffffffff8381167fffffffffffffffffffffffff0000000000000000000000000000000000000000831681178455604051919092169283917f8be0079c531659141344cd1fd0a4f28419497f9722a3daafe3b4186f6b6457e09190a35050565b6000602082840312156104ef57600080fd5b813573ffffffffffffffffffffffffffffffffffffffff8116811461051357600080fd5b939250505056fea26469706673582212201bac02ed4a09c011cef04b0faebf47b0fdc0531a9238fceacc5912c821ea805b64736f6c63430008090033",
  "devdoc": {
    "events": {
      "CreatedCollection(uint256,address,string,uint256,address)": {
        "params": {
          "contractAddress": "the address of the contract representing the collection",
          "creator": "the collection's owner",
          "index": "the identifier of the newly created collection contract",
          "size": "the number of tokens this collection contract consists of"
        }
      }
    },
    "kind": "dev",
    "methods": {
      "byName(string)": {
        "params": {
          "name": "the unique identifier of the collection contract to retrieve"
        },
        "returns": {
          "_0": "the editions contract"
        }
      },
      "constructor": {
        "params": {
          "implementation": "implementation contract to clone"
        }
      },
      "create((string,string,string),uint64,string,uint16)": {
        "params": {
          "baseUrl": "url to be prepended to token URIs",
          "info": "collection immutable information",
          "royalties": "perpetual royalties paid to the creator upon token selling",
          "size": "number of NFTs composing this collection"
        },
        "returns": {
          "_0": "the address of the collection contract created"
        }
      },
      "getRoleAdmin(bytes32)": {
        "details": "Returns the admin role that controls `role`. See {grantRole} and {revokeRole}. To change a role's admin, use {_setRoleAdmin}."
      },
      "grantRole(bytes32,address)": {
        "details": "Grants `role` to `account`. If `account` had not been already granted `role`, emits a {RoleGranted} event. Requirements: - the caller must have ``role``'s admin role."
      },
      "hasRole(bytes32,address)": {
        "details": "Returns `true` if `account` has been granted `role`."
      },
      "instances()": {
        "returns": {
          "_0": "the number of collection contracts created so far through this factory"
        }
      },
      "renounceRole(bytes32,address)": {
        "details": "Revokes `role` from the calling account. Roles are often managed via {grantRole} and {revokeRole}: this function's purpose is to provide a mechanism for accounts to lose their privileges if they are compromised (such as when a trusted device is misplaced). If the calling account had been revoked `role`, emits a {RoleRevoked} event. Requirements: - the caller must be `account`."
      },
      "revokeRole(bytes32,address)": {
        "details": "Revokes `role` from `account`. If `account` had been granted `role`, emits a {RoleRevoked} event. Requirements: - the caller must have ``role``'s admin role."
      },
      "supportsInterface(bytes4)": {
        "details": "See {IERC165-supportsInterface}."
      }
    },
    "version": 1
  },
  "userdoc": {
    "events": {
      "CreatedCollection(uint256,address,string,uint256,address)": {
        "notice": "Emitted when a collection is created reserving the corresponding token IDs. "
      }
    },
    "kind": "user",
    "methods": {
      "byName(string)": {
        "notice": "Gets a collection contract given the unique identifier. "
      },
      "constructor": {
        "notice": "Initializes the factory with the address of the implementation contract template "
      },
      "create((string,string,string),uint64,string,uint16)": {
        "notice": "Creates a new collection contract as a factory, returning the address of the newly created contract. Important: None of these fields can be changed after calling this operation, with the sole exception of the size and baseUrl fields. "
      }
    },
    "version": 1
  },
  "storageLayout": {
    "storage": [
      {
        "astId": 1892,
        "contract": "contracts/ExpandableCollectionFactory.sol:ExpandableCollectionFactory",
        "label": "_roles",
        "offset": 0,
        "slot": "0",
        "type": "t_mapping(t_bytes32,t_struct(RoleData)1887_storage)"
      },
      {
        "astId": 4321,
        "contract": "contracts/ExpandableCollectionFactory.sol:ExpandableCollectionFactory",
        "label": "_counter",
        "offset": 0,
        "slot": "1",
        "type": "t_struct(Counter)3327_storage"
      },
      {
        "astId": 4328,
        "contract": "contracts/ExpandableCollectionFactory.sol:ExpandableCollectionFactory",
        "label": "_names",
        "offset": 0,
        "slot": "2",
        "type": "t_mapping(t_string_memory_ptr,t_address)"
      }
    ],
    "types": {
      "t_address": {
        "encoding": "inplace",
        "label": "address",
        "numberOfBytes": "20"
      },
      "t_bool": {
        "encoding": "inplace",
        "label": "bool",
        "numberOfBytes": "1"
      },
      "t_bytes32": {
        "encoding": "inplace",
        "label": "bytes32",
        "numberOfBytes": "32"
      },
      "t_mapping(t_address,t_bool)": {
        "encoding": "mapping",
        "key": "t_address",
        "label": "mapping(address => bool)",
        "numberOfBytes": "32",
        "value": "t_bool"
      },
      "t_mapping(t_bytes32,t_struct(RoleData)1887_storage)": {
        "encoding": "mapping",
        "key": "t_bytes32",
        "label": "mapping(bytes32 => struct AccessControl.RoleData)",
        "numberOfBytes": "32",
        "value": "t_struct(RoleData)1887_storage"
      },
      "t_mapping(t_string_memory_ptr,t_address)": {
        "encoding": "mapping",
        "key": "t_string_memory_ptr",
        "label": "mapping(string => address)",
        "numberOfBytes": "32",
        "value": "t_address"
      },
      "t_string_memory_ptr": {
        "encoding": "bytes",
        "label": "string",
        "numberOfBytes": "32"
      },
      "t_struct(Counter)3327_storage": {
        "encoding": "inplace",
        "label": "struct Counters.Counter",
        "members": [
          {
            "astId": 3326,
            "contract": "contracts/ExpandableCollectionFactory.sol:ExpandableCollectionFactory",
            "label": "_value",
            "offset": 0,
            "slot": "0",
            "type": "t_uint256"
          }
        ],
        "numberOfBytes": "32"
      },
      "t_struct(RoleData)1887_storage": {
        "encoding": "inplace",
        "label": "struct AccessControl.RoleData",
        "members": [
          {
            "astId": 1884,
            "contract": "contracts/ExpandableCollectionFactory.sol:ExpandableCollectionFactory",
            "label": "members",
            "offset": 0,
            "slot": "0",
            "type": "t_mapping(t_address,t_bool)"
          },
          {
            "astId": 1886,
            "contract": "contracts/ExpandableCollectionFactory.sol:ExpandableCollectionFactory",
            "label": "adminRole",
            "offset": 0,
            "slot": "1",
            "type": "t_bytes32"
          }
        ],
        "numberOfBytes": "64"
      },
      "t_uint256": {
        "encoding": "inplace",
        "label": "uint256",
        "numberOfBytes": "32"
      }
    }
  }
}